:020000040000fa
:080000000002040000000000f2
:020000040000fa
:10000800f6020000f6020000f6020000f602000008
:10001800f6020000f6020000f6020000f6020000f8
:10002800f6020000f6020000f6020000f6020000e8
:10003800f6020000f6020000f6020000f6020000d8
:10004800f6020000f6020000f6020000dc4a00009a
:10005800844a0000f6020000f6020000f6020000e2
:10006800f6020000f6020000f6020000f6020000a8
:10007800da020000f6020000f6020000f6020000b4
:10008800f6020000f6020000f6020000f602000088
:10009800f6020000f6020000f6020000f602000078
:1000a800f6020000f6020000f6020000f602000068
:1000b800f6020000f6020000f6020000f602000058
:1000c800f6020000f6020000f6020000f602000048
:1000d800f6020000f6020000f6020000f602000038
:1000e800f6020000f6020000f6020000f602000028
:1000f800f6020000f6020000f6020000f602000018
:10010800f6020000f6020000f6020000f602000007
:10011800f6020000f602000054460000f602000055
:10012800f6020000604b0000f6020000f602000034
:10013800f6020000f6020000f6020000f6020000d7
:10014800f6020000f6020000f6020000f6020000c7
:10015800f6020000f6020000f6020000f6020000b7
:10016800f6020000f6020000f6020000f6020000a7
:10017800f6020000f6020000fe350000f60200005c
:10018800f6020000f6020000f6020000f602000087
:10019800f6020000f6020000f6020000f602000077
:1001a800f6020000f6020000f6020000f602000067
:1001b800f6020000f6020000f6020000f602000057
:1001c800f602000014500000f6020000f6020000db
:1001d800f6020000f6020000f6020000f602000037
:1001e800f6020000f6020000f6020000f602000027
:0801f800f6020000f60200000f
:020000040000fa
:10020800f6020000f6020000f6020000f602000006
:10021800f6020000f6020000f6020000f6020000f6
:10022800f6020000f6020000f6020000f6020000e6
:10023800f6020000f6020000f6020000f6020000d6
:10024800f6020000f6020000f6020000dc4a000098
:10025800844a0000f6020000f6020000f6020000e0
:10026800f6020000f6020000f6020000f6020000a6
:10027800da020000f6020000f6020000f6020000b2
:10028800f6020000f6020000f6020000f602000086
:10029800f6020000f6020000f6020000f602000076
:1002a800f6020000f6020000f6020000f602000066
:1002b800f6020000f6020000f6020000f602000056
:1002c800f6020000f6020000f6020000f602000046
:1002d800f6020000f6020000f6020000f602000036
:1002e800f6020000f6020000f6020000f602000026
:1002f800f6020000f6020000f6020000f602000016
:10030800f6020000f6020000f6020000f602000005
:10031800f6020000f602000054460000f602000053
:10032800f6020000604b0000f6020000f602000032
:10033800f6020000f6020000f6020000f6020000d5
:10034800f6020000f6020000f6020000f6020000c5
:10035800f6020000f6020000f6020000f6020000b5
:10036800f6020000f6020000f6020000f6020000a5
:10037800f6020000f6020000fe350000f60200005a
:10038800f6020000f6020000f6020000f602000085
:10039800f6020000f6020000f6020000f602000075
:1003a800f6020000f6020000f6020000f602000065
:1003b800f6020000f6020000f6020000f602000055
:1003c800f602000014500000f6020000f6020000d9
:1003d800f6020000f6020000f6020000f602000035
:1003e800f6020000f6020000f6020000f602000025
:0803f800f6020000f60200000d
:020000040000fa
:100400006fc820000e7f22000e018800000000004f
:10041000000020000000e000020032000001200087
:10042000200288000c000700c01a250001002000ef
:100430000f000700000020000000e0000200320072
:100440000000020000000000fc4d0200000000005f
:100450000040da000000fe00803420000000e000d0
:1004600002003200002020009001880000000600f9
:10047000a1028800800078000000eb001a0037001d
:10048000e280400054a0b4009101ba00e280400034
:1004900054a0b4009102ba00e280400054a0b4001d
:1004a0000002eb00472bde00f507b200a601880032
:1004b000602ce10008003a000049eb000201e8006e
:1004c000020039003420ec0002f0a0008301e900b2
:1004d000f9ff3e00040037006128e100010032000e
:1004e0000082eb00040007001101ba000200e000e6
:1004f000e3ff3a000000060004d0a300e20f490029
:100500001c003900810278003549ba000201e80078
:10051000020039003420ec0002f0a0008301e90061
:100520000f0032002549ba000201e800020039003c
:100530003420ec0002f0a0008301e9000800320042
:100540000400e0000600320015c9ba000201e8000c
:10055000020039003420ec0002f0a0008301e90021
:100560008180e80054a0b4000300e000e2ff3a00fc
:10057000000006009102ba00055978008301e900e5
:10058000f7ff3200c82ade00055978008301e90030
:10059000f3ff32000400e000f1ff320011d9ba008d
:1005a000eeff37008447040000000000ca48040042
:1005b000000000000000fa008680a9000080fa0018
:1005c000004006000000fa008680a9008220a800f2
:1005d0009680a8000080fa00000006000000fa00e3
:1005e000f8ff07000080fa00000006000040da0073
:1005f0000000fe00889fbe00800478002054800028
:10060000e00f500004003a000e0007000084eb00e9
:10061000e00f50000800350028548000e08f54009f
:10062000050032000900440006000700e00f5000fa
:1006300001003d000084eb00080078004f04be007c
:1006400000000600e00f500004003a0064a82000fb
:100650002454880000027800060037000082eb0076
:1006600065c82000850f500002003e00205488001d
:100670000002eb00040078000000060003f0a20076
:10068000889fbe008a9fbe008c1f78000d01070066
:10069000140133006450e1004f0032006420e10097
:1006a0005200320003826c0007003b000905d000b5
:1006b0000306d000820f54000c065d0002003900d2
:1006c0000200320089017800030678008582550017
:1006d00004003d000003fd008103fd008502ea00e7
:1006e0008b854200840f720002003b006000100006
:1006f000e08018006011b8000005eb007a28e100e6
:100700000a00390006007800c75ddd00f707b20077
:10071000878075002d003700828171000a01780002
:10072000610560008180d1000080d3008502e9006e
:10073000f9ff3b00060440008784480002003b00ac
:1007400060041400e0841c000988a3000700320044
:100750008a81710082817100610164008904d10085
:100760000884d3008b05e800170037000978a30040
:1007700013003a000b00e000130034008b05e90081
:100780000804440089844c000a4474000978a300da
:100790000d003a000b00e000070034008b05e90073
:1007a0000804440089844c0001003a000b0020003a
:1007b0000978a300f7ff32000001eb0002003700c8
:1007c000828171000a017800830007000cf0a70005
:1007d00001f0a000cc0037006420e10002003a00e4
:1007e000838f6c00cc0033000801be000200be0005
:1007f000c5003700889fbe008a9fbe008c1f78000e
:10080000b0000700b700330003866c006450e100bd
:100810002e0032006420e100330032006150e1001c
:100820002f0032006120e100310032008585550043
:10083000eb07b00009002000080420000500370085
:100840000804440089844c000a0031000603430078
:1008500087834b000001530081815b00f8ff330068
:100860000203be000800a0000804440089844c0074
:10087000f6ff3900c639dd00830173000100320044
:10088000130020008904d1000884d3000998a30034
:10089000050032000800a7000300a0008904d10071
:1008a0000884d3008b05e8008904d1000884d300b4
:1008b0000001eb000281d2004700070001f0a10017
:1008c0000cf0a70001f0a0008f0037006420e100c9
:1008d000910032000801be000200be00f7ff3700a1
:1008e0006120e1008c0032006000b800f3ff3700a7
:1008f0000000200001f82700f0ff3700839f680008
:100900000100e00002003d0060001000e0801800df
:100910000300e00002003d0060011100e0811900c9
:10092000c30007004f00e00002003b006000100021
:10093000e08018000000060014002000cf003700ff
:10094000f4ff2f00cd0037000001be004800070073
:100950000470a70003f0a1006509b1001600320081
:100960000d0035006828e10006003500f0ff2f007b
:10097000f1ff27000300e00013003b000100280006
:100980000000050000004000818048008502e90069
:10099000fcff3a0008003700f88f420002003c00dc
:1009a0008000eb00000005008100d1000080d30032
:1009b0008502e800fcff3a000300e00002003b0073
:1009c00060001000e0801800000006004f89de0083
:1009d00082017800c400370081002000618055004a
:1009e0000b003d000b00200061fe2f000100e10024
:1009f0001d00340082817100610164008904d1000e
:100a00000884d3000000e800faff3a0071002000db
:100a10006100640003007000020060000900320001
:100a200061044400e0844c000988a5000500320000
:100a30008b05e8006808e10002003a008904d10053
:100a40000884d300f20f20000258e10005003d00a9
:100a5000c75ddd00f907b2008980750008007800e5
:100a6000000006000bf827008b007800000005004e
:100a7000c70ade00f107b200f50fb200080032002d
:100a8000e1cf4200020032000170a0002400050006
:100a9000810f7000010032000408050044000500c9
:100aa000810f700002003a00140005008502e90081
:100ab0000000400081c04800fcff3b000170a00026
:100ac000240005000004be00e9ff07000003be008b
:100ad0000405be000200be00e5ff0700844f75005c
:100ae000000006000200be006450e1000500360070
:100af0006420e100020036000968a30001003a000a
:100b00000800be000160a0004f0678004f05be003f
:100b10004f04be0000000600f0ff2f00f1ff270089
:100b2000f9ff3700811f78000100e00002003d005e
:100b300060001000e08018000300e00002003d00ab
:100b400060011100e0811900490007004f00e0003a
:100b500002003b0060001000e0801800000006006a
:100b6000889fbe008a9fbe008c1f7800d5ff0700bb
:100b7000dcff330003866c006450e1002400320087
:100b80006420e100270032006150e10022003200c1
:100b90006120e100210032008b854200eb07b100ab
:100ba0000134b800003ab8000804420089844a00c1
:100bb000013ab8000030b8008880400009014a00be
:100bc0000400330000004000818048000201490019
:100bd0008b05e900c909dd008301700001003200c6
:100be00013002000c814de004814dd004709de00b1
:100bf0001200b200c808de000884700076ff07000b
:100c000001f0a1000cf0a70001f0a000beff37002a
:100c10006120e100c0ff32000801be000200be00fa
:100c2000f7ff37006150e100fcff3a00baff3700e0
:100c30006022b800060220000000d0008180d200af
:100c40000482d2008582d2000000a000020252007d
:100c500083825a00030031000202420083824a006c
:100c60000000a1000603e900f3ff3a0000000600bf
:100c7000efff07000400be0000000600889fbe00d2
:100c80008a9fbe00841f78008eff07004f00780007
:100c900011003300f0ff2f00838f6c0006003b0033
:100ca000040565000a00a7000800370009f0a60047
:100cb0001000200008003700820f5400838f5c0072
:100cc000030039001000200001003e000000200059
:100cd00009f0a7000000ea004f05be004f04be0067
:100ce0000000e00000000600881f78000304780080
:100cf0000300e00007003d0060001000e0801800e5
:100d000060011900e081190002003b0001f02d0094
:100d1000030037000400070008f0a70001f0a0005e
:100d20004f04780000000600889fbe008a9fbe0026
:100d300000827000040271000482710026003200fb
:100d40000004be000200be006011b8006b09200064
:100d5000950220000182cf000a0039000541b10050
:100d60000082cf00070039000541b1000982cf00a1
:100d7000040039000541b1000882cf0001003900ac
:100d80000541b10005425200120032000a003b004a
:100d900082817100610164008100d1000080d30074
:100da0008984d3000884d3008b05e8000442e8005e
:100db000f7ff3a00070037000804440089844c001c
:100dc00000004800818048008b05e9000442e900ea
:100dd000f9ff3a0000ff07004f05be004f04be00b8
:100de00000000600849f2000e4874700c54f800074
:100df000889fbe008a9fbe008c9fbe008e1f780019
:100e0000e08f52000b003a0024029800e4024200f6
:100e100004548800c54f880015548800a4429000ef
:100e20000504a00025429800e44290000504a000bb
:100e3000654298006704400064a820002500200057
:100e40004244de0069c820004244dd00848454002e
:100e500005074400110009008504d8009cc8200043
:100e6000025480000406560080bf9f000e07470012
:100e70000003eb00e40544000806460002003700ca
:100e8000160020000d0178002242900061026200ed
:100e9000020032000a00370015097800920278003b
:100ea0002542900061026200fbff3200080241000f
:100eb000848f520002003900e00f54003f003d00d3
:100ec000920678000d00a100828f5600edff3e00d3
:100ed000e10f5300eaff3a000fba9700840f540065
:100ee00002003600890f540010003900614ab90031
:100ef000b0ff2f00010020006143b8000402500041
:100f000085825800840f5300858f5b0002003500f6
:100f10000b05780006003700110009000986d8008b
:100f20000982b90004057800010037000e05780039
:100f30000a007800affd0700e10f400005003a000d
:100f40000b0578000b007800aafd0700e10f4000b8
:100f50002b00320014548000000a780014548000e2
:100f600064034200a4429000860f50000200320049
:100f70000504a000010037000504a10025429800e7
:100f800064055500849f20000a0540000a08780087
:100f90001a548800040d7800155480000003eb00fb
:100fa000254290000404a000a44298002042900032
:100fb0000404a10024409800b2ff370004548800c4
:100fc000848f5200070036001403be008042eb00fd
:100fd000e6538800f7538800120a78000454800012
:100fe0002542980022429000075480000404a0008b
:100ff000070978002441980064004100010037008f
:101000000000eb004f0778004f06be004f05be0002
:101010004f04be004f00b10000000600e00f50007a
:10102000080032006400500004548000840f500017
:101030000100310000548800204290000404a10007
:101040002440980000000600889fbe00000478003d
:101050008a9fbe0081047800e08f540005003a00aa
:10106000e00f54003200320008007800ebff070068
:1010700030003700e00f540004003a000900780007
:1010800058ff0700800478002a00370064025400eb
:101090009405780068fa970061026200020032004d
:1010a00008007800ddff0700090078004dff070009
:1010b00080047800e08f54001e003200888f5400b6
:1010c0001b00320069bd9700888555000905550051
:1010d000c2ddde0042d5de000a0178008b0f55002c
:1010e000010036000b0178004211dd008800780015
:1010f0000900780013000700888f54000d003100ac
:101100004255dd000a854400880f5500090036006d
:1011100008045500e4538000f553800042c4de000b
:101120004244dd0008844400048cbe000100370006
:1011300088047800090078004f05be004f04be0007
:10114000000006000002780002003700315a7800e3
:101150000201e900e00f5100fcff3a000000060028
:10116000000278008042eb00b4cf1200fdff3a008d
:0c1170000080ea000000420000000600c1
:020000040000fa
:10117c00534600002c320000005300004e2c00009f
:10118c004368000061720000676500007200000097
:10119c00534400004e2c00004170000065780000a4
:1011ac00776500006200000053440000462c0000ec
:1011bc00312e00003000000053440000482c000089
:1011cc00312e00003000000053440000462c00007b
:1011dc0055530000422d000043680000617200006e
:1011ec00676500007200000053440000522c0000a0
:1011fc00312e00003000000053440000532c00003e
:10120c00303000003031000000530000532c00003f
:10121c003830000030300000303000003031000039
:10122c0000530000522c000032340000303000001b
:10123c00343000003030000000500000532c00000f
:10124c0041460000463200003543000036300000b5
:10125c0039430000423400003131000045340000b5
:10126c0041310000454200003030000030320000b7
:10127c004135000044350000433500003142000088
:10128c0000500000432c0000414600004632000094
:10129c003543000036300000394300004234000072
:1012ac00313100004534000041310000454200005e
:1012bc003030000030320000413500004435000071
:1012cc0043350000314200002c300000412c00005e
:1012dc003132000000500000532c00004338000055
:1012ec004345000043440000343000003943000003
:1012fc004234000031310000453400003843000016
:10130c003631000030300000303200004135000032
:10131c00443500004335000031420000005000000d
:10132c00432c0000433800004345000043440000b8
:10133c0034300000394300004234000031310000e9
:10134c0045340000384300003631000030300000d6
:10135c0030320000413500004435000043350000b8
:10136c00314200002c300000322c000030380000dc
:10137c0000500000532c00004437000032440000a1
:10138c004232000032300000394300004234000089
:10139c003131000045340000423900004335000073
:1013ac003030000030320000413500004435000080
:1013bc00433500003142000000500000432c000077
:1013cc00443700003244000042320000323000004a
:1013dc003943000042340000313100004534000034
:1013ec00423900004335000030300000303200003c
:1013fc004135000044350000433500003142000007
:10140c002c300000412c0000303100000050000056
:10141c00532c0000453700004433000037390000de
:10142c0043300000394300004234000031310000e9
:10143c0045340000424200003332000030300000de
:10144c0030320000413500004435000043350000c7
:10145c003142000000500000432c000045370000d2
:10146c00443300003739000043300000394300009a
:10147c00423400003131000045340000424200008b
:10148c0033320000303000003032000041350000b3
:10149c004435000043350000314200002c30000080
:1014ac00412c00003038000000500000532c00008c
:1014bc004636000030300000303400003030000080
:1014cc003943000042340000313100004534000043
:1014dc004237000043390000303000003032000049
:1014ec004135000044350000433500003142000016
:1014fc0000500000432c0000463600003030000045
:10150c003034000030300000394300004234000019
:10151c0031310000453400004237000043390000ef
:10152c0030300000303200004135000044350000fe
:10153c0043350000314200002c300000412c0000eb
:10154c003038000000500000532c000030320000f6
:10155c0042300000394300004130000039430000a4
:10156c004235000031310000453400004243000098
:10157c0031370000303000003032000041350000bf
:10158c00443500004335000031420000005000009b
:10159c00432c000030320000423000003943000080
:1015ac004130000039430000423500003131000069
:1015bc004534000042430000313700003030000059
:1015cc003032000041350000443500004335000046
:1015dc00314200002c300000322c00003130000071
:1015ec0000500000532c000030460000463800002c
:1015fc003435000032300000394300004235000021
:10160c003131000045340000383100004334000013
:10161c00303000003032000041350000443500000d
:10162c00433500003142000000500000432c000004
:10163c0030460000463800003435000032300000df
:10164c0039430000423500003131000045340000c0
:10165c0038310000433400003030000030320000dc
:10166c004135000044350000433500003142000094
:10167c002c300000322c00003132000000500000f1
:10168c00532c000032310000333500003143000090
:10169c004130000039430000423500003131000078
:1016ac004534000038420000343500003030000072
:1016bc003032000041350000443500004335000055
:1016cc003142000000500000432c00003231000079
:1016dc003335000031430000413000003943000035
:1016ec004235000031310000453400003842000022
:1016fc00343500003030000030320000413500003d
:10170c004435000043350000314200002c3000000d
:10171c00322c00003038000000500000532c000028
:10172c003532000038310000413800003030000004
:10173c0039430000423500003131000045340000cf
:10174c0042450000323900003030000030320000d9
:10175c0041350000443500004335000031420000a3
:10176c0000500000432c00003532000038310000de
:10177c004138000030300000394300004235000091
:10178c003131000045340000424500003239000080
:10179c00303000003032000041350000443500008c
:1017ac0043350000314200002c300000322c000088
:1017bc0031320000005200002c31000000530000b8
:1017cc00485700002c30000030310000432c000042
:1017dc003031000000530000485700002c3000004e
:1017ec0030310000432c000030300000005300006a
:1017fc00485200002c30000030310000380000004e
:020000040000fa
:10180c000400fa002047980031479800b58b20005f
:10181c00954278002e42900084cf52000200320094
:10182c0064c0b300120037003e4090002a0b070042
:10183c0000027800040f78001e027800e00f5200be
:10184c000a0032009e027800150290000450a1009c
:10185c00940298009e027800150290000460a1008a
:10186c00940298000042eb000100370044c1b30021
:10187c00044078000080fa00000006000200fa0024
:10188c00004f7800444680004622de006142620030
:10189c000482fb00040078000080fa0000000600bf
:1018ac000200fa00004f78007545800004f020001b
:1018bc0004826200e00f520002003a0014c3b3002d
:1018cc00190037007545800004f020008482620006
:1018dc0004402000848f520009003a0075458000b6
:1018ec00040f200004826200f00f520002003a0044
:1018fc00a4c3b3000c00370004c3b3000a003700c4
:10190c007545800004f020008482620004502000a1
:10191c00848f520003003a00c48b200014427800dc
:10192c000100370024c3b300044078000080fa00a3
:10193c00000006000400fa00008fbe003446800050
:10194c00e00f52000d003a002002200022fd07009b
:10195c00000278003446880034468000e00f5200c4
:10196c0002003a000002eb001b00370034468000f6
:10197c008002eb00050a780001003700740f0700a5
:10198c0034468000344588000002eb007445880022
:10199c000082eb00844588000042eb000443780091
:1019ac00a58b2000864a78000042eb0004437800a7
:1019bc00b58b2000864a78000009a800440020005e
:1019cc005446880044002000644688000002eb0066
:1019dc007446880014002000040078000080fa008f
:1019ec00000006001400fa00604798007147980048
:1019fc00024f9800530798006407980075079800e9
:101a0c00060f980027579800b58b20009542780058
:101a1c006e42900084cf52000200320064c0b300ca
:101a2c00a60037007545800004f020008482620017
:101a3c0004402000848f52000200320014c0b30016
:101a4c009e00370034468000940290000420200051
:101a5c0004826200e00f520002003a0004c1b3009d
:101a6c00960037000e4a9000eb4f520042003a00ad
:101a7c002446800014079800030037001e029000d3
:101a8c0094027800150798001e029000e00f520097
:101a9c00060032001e029000644290008482fb001b
:101aac006e029000848f5200f4ff3a001e029000e8
:101abc00e00f5200040032001e029000240290003d
:101acc00e00f520002003a0034c0b3007b00370034
:101adc001e02900024029000a4029000050f7800d2
:101aec000a0037001e0278009402900004202000a7
:101afc0004826200e00f520002003a0034c0b300ce
:101b0c006e0037001e027800140f78001e02780059
:101b1c00e00f5200f3ff3a001e0290009402900076
:101b2c0025079800030037002e02900094027800dd
:101b3c00250798002e029000e00f5200060032009c
:101b4c002e029000244290008482fb005e029000e2
:101b5c00848f5200f4ff3a002e029000e00f5200e6
:101b6c0002003a0034c0b300540037001e0290004b
:101b7c00ae029000250298000e4a9000e14f5200f0
:101b8c000e003a005e029000e00f52000b003a008b
:101b9c007e4290000482fb0060024200e20f520081
:101bac0005003e006e02900004427800044078006c
:101bbc00b2120700010037000000000064458000ed
:101bcc00fe429000054a7800644580000402e8005b
:101bdc008e4a9000054a7800644580000482e80033
:101bec00de02900085427800054a7800644580004a
:101bfc0063024200de029000c82ade0085427800b3
:101c0c00054a78006445800064024200ee029000b0
:101c1c0085427800054a78006445800065024200e0
:101c2c00ee029000c82ade0085427800054a780052
:101c3c006445800066024200fe02900085427800f6
:101c4c00054a78006445800067024200fe0290005d
:101c5c00c82ade0085427800054a780034468000a8
:101c6c008efa9700155a98002e529000e04f5200b1
:101c7c0009003a0066458000354680007e029000df
:101c8c008e09900082002000860078000500780004
:101c9c00150f0700080037006645800035468000a8
:101cac007e0290008e099000820020008600780051
:101cbc0005007800cf0e07000042eb0004407800ce
:101ccc000080fa00000006000a00fa002047980085
:101cdc003147980022079800340798004507980070
:101cec00b58b2000954278002e42900084cf520094
:101cfc000200320064c0b3003d003700754580001f
:101d0c0004f020008482620004402000848f520082
:101d1c000200320014c0b300350037003e40900082
:101d2c00ed09070000027800040f78001e0278000d
:101d3c00e00f52002d0032001e027800d40a9000f1
:101d4c000430200004826200e00f520002003a00ce
:101d5c0084c1b300260037001e027800245a90007c
:101d6c00e04f52000200350054c1b3002000370090
:101d7c001e0278009402900004022000048262008b
:101d8c00e00f52000200320014c1b30018003700fb
:101d9c001e02780094029000040420000482620069
:101dac00e00f52000200320024c1b30010003700d3
:101dbc001e0278009402900004202000048262002d
:101dcc00e00f520002003a0004c1b30008003700d3
:101ddc003e02900004017800ae0090001e007800d6
:101dec00050f07000042eb000100370044c1b300af
:101dfc00044078000080fa00000006000200fa009f
:101e0c00004f7800b48b2000144278009e4f520093
:101e1c000200320064c0b3000a0037007545800030
:101e2c0004f0200004826200e00f520002003a002d
:101e3c0034c0b300030037000002eb007445880087
:101e4c000042eb00044078000080fa00000006001d
:101e5c000200fa00004f7800b48b20001442780086
:101e6c009e4f52000200320064c0b3000a003700db
:101e7c007545800004412000848f5200020032001e
:101e8c0034c0b30004003700744580000402e8003d
:101e9c00744588000042eb00044078000080fa0092
:101eac00000006000200fa00004f7800114798006d
:101ebc00b48b2000144278009e4f52000200320076
:101ecc0064c0b300170037007545800004f0200093
:101edc008482620004402000848f52000200320091
:101eec0014c0b3000f003700101307000002780075
:101efc00e00f52000200320024c0b300090037008a
:101f0c009e429000848b2000054a78003446800065
:101f1c0080c2eb00155a98000433200074458800e9
:101f2c000042eb00044078000080fa00000006003c
:101f3c000800fa00204798003147980022079800c3
:101f4c0033079800b58b2000954278002e42900004
:101f5c0084cf52000200320064c0b3001b00370073
:101f6c003e4090005c09070000027800040f7800e6
:101f7c001e027800e00f5200130032002e02900077
:101f8c000442780061426200614262006142620078
:101f9c009e0278000482fb00610262004d22dd008b
:101fac0095039000f6ff2d00068363000602720075
:101fbc00940298001e027800be0290000512980050
:101fcc000042eb000100370044c1b300044078002c
:101fdc000080fa00000006000200fa000002eb008c
:101fec0044248800b48b200014427800e04f520047
:101ffc00110032000042eb00044f7800b68b200039
:10200c001643780024002000050020000e01780003
:10201c00a106200006407800821e0700b48b200029
:10202c001442780013002000b28b2000110720000e
:10203c0004407800fe0e07006000b8003dfe07006b
:10204c000080fa00000006000200fa00004f780041
:10205c00b48b2000144278009e4f520002003200d4
:10206c0064c0b3000a0037007545800004402000ae
:10207c00848f52000200320034c0b30004003700d9
:10208c009404a90004412000744588000042eb0030
:10209c00044078000080fa00000006000c00fa00f2
:1020ac00881f78003900370064468000e20f520028
:1020bc0007003c00644680000402e8006c22b90072
:1020cc0084027800048d2000048242000100370055
:1020dc00048d2000240798002e0290001402780032
:1020ec0025072000850f520003003200f5ff270062
:1020fc00850f52000c003a002e0290000483e80079
:10210c002e02900094027800b48b200014427800c8
:10211c00a3002000060178008500780004407800b8
:10212c00c30e07000100370000000000642480008b
:10213c00340798000002eb00642488007446800089
:10214c000402e9007446880064468000e20f5200e5
:10215c0004003c00644680000402e80064468800e9
:10216c00020037000002eb006446880064468000e1
:10217c006c22b90084027800048d20000482420095
:10218c0024079800be0290006524880074468000e5
:10219c00e00f5200c4ff3a0084458000e10f42007a
:1021ac000400320084458000744588000082eb00f6
:1021bc00844588007545800004f02000048262008c
:1021cc0005202000850f52007402320005202000eb
:1021dc00850f520006003e00e00f52000e00320048
:1021ec0005102000850f5200bd0032005b06370041
:1021fc0005402000850f5200a50532000550200037
:10220c00850f5200d605320005302000850f520094
:10221c00cb0232005106370075458000040f2000b8
:10222c0004826200f00f520075003200f00f520071
:10223c0003003e00e00f5200080032004706370052
:10224c0005022000850f52007800320005032000a3
:10225c00850f5200a0003200400637005eff0700d9
:10226c00344680008002eb00050a7800344680007a
:10227c008002eb0015029800354680001502900094
:10228c0004a0a0009402980035468000150290002e
:10229c000490a0009402980035468000150290002e
:1022ac0004d0a0009402980034468000850c2000d5
:1022bc000512980034468000050420004502980061
:1022cc00364680006022b800040b9800150b98006d
:1022dc00344680008042eb00255a9800344680003a
:1022ec008042eb00055a980035468000550a900054
:1022fc000480a1000490a100d40a98003446800008
:10230c0080c2eb00155a980034c0b30084427800a8
:10231c00268a2000054b78000042eb0084427800ae
:10232c00868b2000054b78000042eb00844278003d
:10233c00968b2000054b78000042eb00844278001d
:10234c00a68b2000054b78000002eb004446880069
:10235c000002eb00244688000002eb009445880044
:10236c000002eb0064248800f40f20005424880041
:10237c0015248000c4082000048262001424880004
:10238c00d4072000042488000002eb008424880079
:10239c00f40f20007424880004a020004822de00e2
:1023ac00c424880084002000a4248800a4002000f9
:1023bc00a424880084002000a424880004032000a6
:1023cc003424880024002000342588000002eb000f
:1023dc00442588000002eb00b4248800aae4a9007c
:1023ec00a4042000042588007545800004ff20000b
:1023fc000482620070024200744588003700370086
:10240c00049020001442780061426200e04f5200b8
:10241c00050032007545800004ff20000482620034
:10242c0070024200744588002c0037000042eb001b
:10243c00244f980024c3b300344f98006a0347001c
:10244c0024002000050020000601780091062000e1
:10245c0000c0eb00731d070000027800e00f520073
:10246c0019003200140020004424880075048000f8
:10247c00f4fb2f000482620074048800750680004f
:10248c00f40f2f0004826200740688007506800029
:10249c00046020000502720074068800f5048000b8
:1024ac000404200005027200f404880075458000c5
:1024bc0004ff200004826200700242007445880010
:1024cc008cc4a800030037000009a90004012000f7
:1024dc007445880001003700000000009f0537009c
:1024ec0075458000040f2000048262000502200064
:1024fc00850f5200b200320005022000850f5200f9
:10250c0005003e00e00f52000a003200f00f5200ae
:10251c00250032009105370005032000850f52007d
:10252c003c01320005042000850f5200930132005b
:10253c008a053700744580006f026200e10f52007b
:10254c0011003200e10f520003003900e20f52007b
:10255c000e003200130037001400200054248800b1
:10256c008c04a800b40f200024458800040420002b
:10257c000424880082c4a800744580000402e8008a
:10258c007445880007003700060037007545800049
:10259c0004ff20000482620070024200744588002f
:1025ac00000000007c013700744580006f0262005f
:1025bc00050020004600200007002000860f520076
:1025cc00878f5a007c003e00046001000400370035
:1025dc0062003700620037006c0037006c00370077
:1025ec0064458000e00f5200050032006445800015
:1025fc000400780086fa07000002eb0064458800ae
:10260c0080002000f4f9070000027800644588007f
:10261c0064458000e00f520007003a0034c3b30059
:10262c0084427800c68b2000054b780004502000b3
:10263c0074458800610037000042eb00844278004a
:10264c00868b2000054b78000042eb00844278001a
:10265c00968b2000054b78000002eb004446880066
:10266c0034c0b30084427800168a2000054b7800f1
:10267c00d4002000542588000002eb00642588005b
:10268c000002eb00742588000002eb008425880012
:10269c000002eb00942588000002eb00a4258800c2
:1026ac000002eb00b42588000002eb00c425880072
:1026bc000002eb00d42588000002eb00e425880022
:1026cc000002eb00f42588000002eb0004268800d1
:1026dc000002eb00142688000002eb002426880080
:1026ec000002eb00342688000002eb004426880030
:1026fc00a52480000408200004826200e00f520030
:10270c0008003a00c808a80004c8b3008442780046
:10271c00a68b2000054b780004082000b424880008
:10272c00aae4a8009424a8009424a900c888a900ad
:10273c00c8a8a9009484a80034032000244588006c
:10274c00040420000424880082c4a800744580007e
:10275c000402e800744588001800370017003700a1
:10276c009484a9009404a800b40020002445880097
:10277c00040420000424880082c4a800744580004e
:10278c000402e800744588000c0037000b00370089
:10279c00f400200064248800f40f200084248800b6
:1027ac007545800004ff2000048262007002420024
:1027bc00744588000100370000000000f600370067
:1027cc00744580006f026200e10f52003900320044
:1027dc00e10f520003003900e20f520053003200a7
:1027ec008b00370054458000e00f5200050032008a
:1027fc00544580000400780005fa07000002eb0045
:10280c00544588006445800005c8b300054a78002b
:10281c00644580000402e80065c0b300054a7800f6
:10282c00644580000482e8008042eb00054a780091
:10283c00644580006302420015c0b300054a78006d
:10284c0064458000640242008042eb00054a780037
:10285c0064458000650242008042eb00054a780026
:10286c00644580006602420085c0b300054a7800ca
:10287c0064458000670242008042eb00054a780004
:10288c006745800066458000354680008400200046
:10289c00870178008200200086007800050078000f
:1028ac00d40b0700744580000402e80074458800ce
:1028bc00570037003446800094029000042020001a
:1028cc0004826200e00f5200170032003446800090
:1028dc00940290000410200004826200e00f520069
:1028ec0010003200644580006402420014427800fb
:1028fc00e94f520007003a0054c3b30084427800f9
:10290c00c68b2000054b78000450200074458800cd
:10291c0005003700744580000402e8007445880007
:10292c00010037006405070039003700644580005a
:10293c00144278000482fb000400780026f907009a
:10294c00000278005445880054458000e00f520086
:10295c0007003a0034c3b30084427800c68b2000d1
:10296c00054b78000450200074458800280037007f
:10297c00544580006545800095427800054a7800f2
:10298c003446800065458000f54290008582fb004e
:10299c004502980064458000040078009cf907000b
:1029ac000002eb006445880034468000440290002d
:1029bc000400780008f907000002780064458800dc
:1029cc0064458000e00f520007003a0034c3b300a6
:1029dc0084427800c68b2000054b78000450200000
:1029ec00744588000a00370034c0b3008442780074
:1029fc00168a2000054b78007545800004ff2000e6
:102a0c0004826200700242007445880000000000dd
:102a1c0061003700744580006f026200e10f5200c4
:102a2c0039003200e10f520003003900e20f52006e
:102a3c00470032005000370094458000700262005d
:102a4c00e00f5200010032004b003700644580005b
:102a5c0005c8b300054a7800644580000402e8000c
:102a6c0065c0b300054a7800644580000482e80024
:102a7c008042eb00054a7800644580006302420006
:102a8c0015c0b300054a780064458000640242001a
:102a9c008042eb00054a78006445800065024200e4
:102aac008042eb00054a78006445800066024200d3
:102abc005545800095427800054a780064458000b1
:102acc00670242008042eb00054a780054458000c2
:102adc00144278000482fb00574580006645800054
:102aec00354680008701780082002000860078003f
:102afc00050078003f0b0700744580000402e800d5
:102b0c00744588001c003700344680009402900005
:102b1c000420200004826200e00f52000b003200ff
:102b2c00344680009402900004102000048262005d
:102b3c00e00f520004003200744580000402e800eb
:102b4c007445880001003700db0407000a003700d9
:102b5c0034c0b30084427800168a2000054b7800fc
:102b6c007545800004ff2000048262007002420060
:102b7c007445880000000000070037007805070046
:102b8c007545800004f02000048262000410b0003f
:102b9c007445880000000000f00337007545800084
:102bac00040f200004826200e00f5200e8033a0098
:102bbc00744580006f026200e10f52003500320054
:102bcc00e10f520003003900e20f520043003200c3
:102bdc005900370014c0b30084427800b68b200033
:102bec00054b7800644580008042eb00054a780074
:102bfc00644580000402e80055c0b300054a780023
:102c0c00644580000482e800b58b20009542780072
:102c1c00054a780064458000630242008042eb0064
:102c2c00054a780064458000640242008042eb0053
:102c3c00054a780064458000650242008042eb0042
:102c4c00054a780064458000660242008042eb0031
:102c5c00054a780064458000670242008042eb0020
:102c6c00054a780066458000354680000002eb007e
:102c7c008001eb00820020008600780005007800bf
:102c8c00190b0700744580000402e80074458800a5
:102c9c002900370034468000940290000420200064
:102cac0004826200e00f52002200320034468000a1
:102cbc00940290000410200004826200e00f520085
:102ccc0004003200744580000402e800744588005a
:102cdc0019003700780407001700370044468000bd
:102cec0004427800614262000482fb004722dd004e
:102cfc0084427800b48b20001442780004c2720025
:102d0c0084427800a68b2000054b780034c0b300b9
:102d1c0084427800168a2000054b780075458000a7
:102d2c0004f02000048262000410b0007445880096
:102d3c00010037000000000000000000870337008e
:102d4c0075458000040f20000482620005022000fb
:102d5c00850f5200cf00320005022000850f520073
:102d6c0005003e00e00f52000a003200f00f520046
:102d7c00280032007903370005032000850f52002c
:102d8c003101320005042000850f5200ee013200a3
:102d9c00720337005445800014529000844278002e
:102dac00068a2000054b780011003700144680007d
:102dbc001402900044079800144680001402780016
:102dcc000400780092f80700144680008002eb00a3
:102ddc00050a780014468000040078008cf807007f
:102dec000002eb00144688004e0290001446880046
:102dfc0014468000e00f5200ecff3a00754580004d
:102e0c0004ff2000048262007002420074458800b6
:102e1c009e023700744580006f026200e10f520081
:102e2c0031003200e10f520003003900e20f520072
:102e3c003f003200960037006445800005c8b3009f
:102e4c00054a7800644580000402e80065c0b300c0
:102e5c00054a7800644580000482e8008042eb005b
:102e6c00054a7800644580006302420025c0b30027
:102e7c00054a780064458000640242008042eb0001
:102e8c00054a780064458000650242008042eb00f0
:102e9c00054a7800644580006602420085c0b30094
:102eac00054a780064458000670242008042eb00ce
:102ebc00054a7800674580006645800035468000ed
:102ecc0084002000870178008200200086007800b2
:102edc0005007800470a0700744580000402e800ea
:102eec00744588006a0037003446800094029000d4
:102efc000420200004826200e00f52000b0032001c
:102f0c003446800094029000041020000482620079
:102f1c00e00f520004003200744580000402e80007
:102f2c007445880001003700e303070058003700a0
:102f3c0060002000a8f70700000278004407980002
:102f4c004e029000e00f520007003a0034c3b30069
:102f5c0084427800c68b2000054b7800045020007a
:102f6c00744588004a0037004e0490006445800088
:102f7c0063024200144278000482fb00c822dd0088
:102f8c00644580000482e800144278000482fb004f
:102f9c0004824200040078008ff7070000027800da
:102fac00040c780018027800e00f52000b003a0075
:102fbc004e00900016f807000002eb004407980042
:102fcc0034c3b30084427800c68b2000054b7800d4
:102fdc0004502000744588002d0037004e029000ec
:102fec001402780065458000e38242009542780027
:102ffc008582fb00482bdd00654580008582e8005a
:10300c00954278008582fb0085024300f60f200074
:10301c0006836200a4439000e0c3630006c3730000
:10302c0026429800c82ade003443900060436300b7
:10303c0085427300354298004e0290001546800080
:10304c00150298004e029000144688004e02900023
:10305c0014027800444588004e029000058a200036
:10306c00954278004542980034c0b3008442780001
:10307c00168a2000054b78007545800004ff20005f
:10308c000482620070024200744588000000000057
:10309c00fe013700744580006f026200e10f5200a0
:1030ac003f003200e10f520003003900e20f5200e2
:1030bc004d003200630037006445800005c8b30042
:1030cc00054a7800644580000402e80065c0b3003e
:1030dc00054a7800644580000482e8008042eb00d9
:1030ec00054a7800644580006302420025c0b300a5
:1030fc00054a780064458000640242008042eb007f
:10310c00054a780064458000650242008042eb006d
:10311c00054a78006445800066024200154680002e
:10312c00950278008582e80095427800054a78007f
:10313c0064458000670242001546800095027800c5
:10314c00e382420095427800054a780014468000dc
:10315c0014027800a44290008582fb003442900057
:10316c000482fb004822dd000482720015468000b8
:10317c00950378006645800035468000870178000d
:10318c00820020008600780005007800990907006d
:10319c00744580000402e80074458800290037005b
:1031ac0034468000940290000420200004826200c7
:1031bc00e00f52000b003200344680009402900065
:1031cc000410200004826200e00f52000400320060
:1031dc00744580000402e800744588000100370043
:1031ec00350307001700370034c0b3008442780061
:1031fc00168a2000054b7800048a200014427800bf
:10320c000442e90084427800068a2000054b7800cd
:10321c00048a200014427800e04f52000300320070
:10322c000431200074458800050037007545800086
:10323c0004ff200004826200700242007445880082
:10324c000000000091013700744580006f0262009d
:10325c00050020003600200007002000860f5200d9
:10326c00878f5a00b6003e0004600100030037004f
:10327c004a0037008800370099003700f70807002c
:10328c00848b200014427800e04f520012003a0068
:10329c0014468000244888000b0037002448800026
:1032ac001402780044458800d00a07000002780018
:1032bc00e00f520022003a00e80807002448800082
:1032cc00140290002448880024488000e00f52002b
:1032dc00f2ff3a001b003700144680002448880097
:1032ec000300370024488000140290002448880012
:1032fc0024488000e00f5200060032002448800071
:10330c00c4429000848b20001442780084cf520079
:10331c00f4ff3a00244880001402780044458800e9
:10332c00b20a070000027800e00f520005003a00d4
:10333c00ca0807000002eb0024488800010037008f
:10334c00000000004446800064026200e00f52005e
:10335c000e00320024488000e00f520007003a00b3
:10336c0044c3b30084427800c68b2000054b780020
:10337c000450200074458800070037007445800015
:10338c000402e8007445880003003700744580008f
:10339c000402e800744588006a0037004446800047
:1033ac0064026200e00f520035003a00c848a800e1
:1033bc00644580008042eb00054a7800644580003b
:1033cc000402e80035c0b300054a7800444680008a
:1033dc0068026200e00f5200050032006445800074
:1033ec000482e80035c0b300054a780004003700b9
:1033fc00644580000482e80045c0b300054a7800ab
:10340c0064458000630242008042eb00054a78006c
:10341c0064458000640242008042eb00054a78005b
:10342c0064458000650242008042eb00054a78004a
:10343c0064458000660242008042eb00054a780039
:10344c0064458000670242008042eb00054a780028
:10345c0066458000354680000002eb008001eb00e1
:10346c008200200086007800050078001e09070005
:10347c00744580000402e80074458800050037009c
:10348c007545800004ff2000048262007002420037
:10349c00744588002b00370034468000940290005d
:1034ac000420200004826200e00f52000b00320066
:1034bc0034468000940290000410200004826200c4
:1034cc00e00f520004003200744580000402e80052
:1034dc007445880001003700770207001900370097
:1034ec0034c0b30084427800168a2000054b780063
:1034fc0024488000e00f520007003a0044c3b30098
:10350c0084427800c68b2000054b780004502000c4
:10351c00744588000900370034c0b3008442780039
:10352c00168a2000054b78007545800004ff2000aa
:10353c00048262007002420074458800010037006a
:10354c0000000000d1003700744580006f0262005b
:10355c00050020003600200007002000860f5200d6
:10356c00878f5a00c7003e0004600100030037003b
:10357c002e0037003f0037004600370064458000be
:10358c008042eb00054a7800644580000402e800a4
:10359c0095c0b300054a7800644580000482e800b9
:1035ac00858b200095427800054a780064458000a0
:1035bc00630242008042eb00054a780064458000bb
:1035cc00640242008042eb00054a780064458000aa
:1035dc00650242008042eb00054a78006445800099
:1035ec00660242008042eb00054a78006445800088
:1035fc00670242008042eb00054a78006645800075
:10360c00354680000002eb008001eb0082002000b8
:10361c008600780005007800b30807007445800028
:10362c000402e80074458800970037003446800097
:10363c00940290000420200004826200e00f5200eb
:10364c000b003200344680009402900004102000dd
:10365c0004826200e00f52000400320074458000c6
:10366c000402e800744588000100370012020700cc
:10367c008500370034c0b30084427800168a2000dd
:10368c00054b7800744580000402e80074458800fe
:10369c007d0037007545800004f020000482620034
:1036ac000410b000744588004546800004042000d6
:1036bc0004826200e00f520022003200d68b200000
:1036cc0016437800264798002e4290000482fb0097
:1036dc006a22b90084027800c49b20000482420054
:1036ec00940378002e4290000482fb006a22b900f9
:1036fc0004027800e6024200c49b200004824200cf
:10370c001402be00b68b200016437800ae40900029
:10371c000401be000640780007000100000278009a
:10372c00e00f520030003a0094c3b3000443780019
:10373c00c58b2000864a7800045020007445880010
:10374c002900370024468000040f7800230037003e
:10375c001e027800f4429000254798002e429000fb
:10376c000482fb006a22b90084027800c49b20000a
:10377c0004824200940378002e4290000482fb00e5
:10378c006a22b90004027800e6024200c49b2000c1
:10379c00048242001402be00b68b2000164378004f
:1037ac00ae4090000401be00064078000700010006
:1037bc0000027800e00f520006003a0094c3b300f8
:1037cc0084427800c68b2000054b78000450200002
:1037dc00744588001e027800140f78001e027800d1
:1037ec00e00f5200daff3a00454680000408200042
:1037fc0004826200e00f520021003200e68b2000b0
:10380c0016437800264798002e4290000482fb0055
:10381c006a22b90084027800c49b20000482420012
:10382c00940378002e4290000482fb006a22b900b7
:10383c0004027800e6024200c49b2000048242008d
:10384c001402be00b68b200016437800ae409000e8
:10385c000401be0006407800070001000002780059
:10386c00e00f520006003a0094c3b3000443780002
:10387c00c58b2000864a78000450200074458800cf
:10388c00010037000000000000000000b30037000a
:10389c0075458000040f200004826200e00f520086
:1038ac0003003200f00f520002003200ab00370070
:1038bc002a003700744580006f026200050020006a
:1038cc005600200007002000860f5200878f5a00f8
:1038dc00a1003e0004600100050037000500370020
:1038ec000e0037000e0037001800370018003700a4
:1038fc001a0037009444a800540120002445880085
:10390c00040420000424880082c4a80074458000ac
:10391c000402e80074458800100037000f003700df
:10392c009444a9009404a800b40020002445880005
:10393c00040420000424880082c4a800744580007c
:10394c000402e800744588000400370003003700c7
:10395c000440200074458800000000007f00370000
:10396c0075458000040f200004826200e00f5200b5
:10397c0074003a0084002000a42488000002eb00ac
:10398c0064248800f40f200054248800152480003f
:10399c00c40820000482620014248800d40720008c
:1039ac00042488000002eb0084248800f40f20001b
:1039bc00742488008c04a800c48b20001442780066
:1039cc000482fb006123b90094ff2f00f5ff2f0048
:1039dc000602420087824a002603200007002000ce
:1039ec00860f5200878f5a0043003e00046001008e
:1039fc0038003700400037003f0037003e003700ea
:103a0c003d0037003c0037003b0037003a003700e0
:103a1c0039003700380037003700370036003700e0
:103a2c0035003700340037003300370032003700e0
:103a3c0031003700300037002f0037002e003700e0
:103a4c002d0037002c0037002b0037002a003700e0
:103a5c0029003700280037002700370026003700e0
:103a6c0025003700240037002300370022003700e0
:103a7c0021003700200037001f0037001e003700e0
:103a8c001d0037001c0037001b0037001a003700e0
:103a9c0019003700180037001700370016003700e0
:103aac0012003700080037000400370012003700fe
:103abc0011003700100037000900370054c6b3005e
:103acc00244798000f003700c4c6b3002447980061
:103adc000c003700d4c6b300244798000900370007
:103aec00e4c6b3002447980006003700f4c6b300c0
:103afc00244798000300370004c7b30024479800fc
:103b0c00000000002e4290008483fb00b68b200046
:103b1c00164378001400200005002000028c2000c1
:103b2c008700780006407800be17070075458000b6
:103b3c0004ff200004826200700242007445880079
:103b4c0001003700000000000000000003003700f7
:103b5c000000000001003700000000004f04780056
:103b6c000080fa00000006000400fa0020479800cc
:103b7c0031479800b58b2000954278002e4290007a
:103b8c0084cf520010003a003e40900052020700d1
:103b9c0000027800040f78001e027800e00f52003b
:103bac000a0032009e027800150290000470a000fa
:103bbc00940298009e027800150290000490a000d8
:103bcc009402980001003700000000000080fa0009
:103bdc00000006000a00fa00404798005147980080
:103bec003207980043079800b58b20009542780067
:103bfc004e42900084cf5200080032003e029000ea
:103c0c0065c0b300054a78004e0390006022b800ee
:103c1c00048bbe00140020003a0037005e40900078
:103c2c002d02070000027800040f78001e027800b5
:103c3c00e00f52002f0032001e0278001402900098
:103c4c004922de0061426200244798001e0278007f
:103c5c00940290000410200004826200e00f5200d5
:103c6c00090032003e0290008042eb00054a7800c9
:103c7c001e027800940a9000040a90004e039000f3
:103c8c00048bbe00180037001e02780094029000ce
:103c9c000402200004826200e00f52000400320093
:103cac003e02900015c1b300054a78000e003700a3
:103cbc001e0278009402900004042000048262002a
:103ccc00e00f5200050032001e027800c45a90002a
:103cdc003e029000054a7800030037003e02900037
:103cec0095c1b300054a78002e4290000482fb0077
:103cfc00040037003e02900045c1b300054a78002d
:103d0c0014002000040078000080fa000000060077
:103d1c000400fa00000f7800214798003247980001
:103d2c002e429000e14f420012003a003e429000b9
:103d3c00e04f52000f003a00840620009e027800eb
:103d4c00848f520004003a00a3f807000009a90070
:103d5c000042eb0008003700b40620009e027800f9
:103d6c00848f520003003a000009a8000042eb00c7
:103d7c000100370034c0b300044078000080fa0022
:103d8c00000006000a00fa0020479800314798000e
:103d9c00220798003407980045079800b58b20003f
:103dac00954278002e42900084cf520002003200df
:103dbc0064c0b3003d0037007545800004f020005e
:103dcc008482620004402000848f52000200320082
:103ddc0014c0b300350037003e409000be01070010
:103dec0000027800040f78001e027800e00f5200e9
:103dfc002d0032001e027800d40a900004302000fe
:103e0c0004826200e00f520002003a0084c1b30049
:103e1c00260037001e027800245a9000e04f520012
:103e2c0002003d0054c1b300200037001e02780090
:103e3c00940290000402200004826200e00f520001
:103e4c000200320014c1b300180037001e027800c3
:103e5c00940290000404200004826200e00f5200df
:103e6c000200320024c1b300100037001e0278009b
:103e7c00940290000420200004826200e00f5200a3
:103e8c0002003a0004c1b300080037003e02900063
:103e9c0004017800ae0090001e0078001d0707009a
:103eac000042eb000100370044c1b300044078002d
:103ebc000080fa00000006000000fa003545800082
:103ecc00150290000460a100940298003545800012
:103edc00150290000450a10094029800148a20004e
:103eec00144278000442e90004437800158a20004b
:103efc00864a7800148a200014427800e04f520061
:103f0c00050032007545800004ff2f00048262001a
:103f1c007445880013003700248a2000144278006e
:103f2c000442e90004437800258a2000864a780080
:103f3c00248a200014427800e04f52000300320023
:103f4c0004112000744588000600370074c0b300cb
:103f5c0004437800c58b2000864a7800045020006a
:103f6c00744588000080fa00000006001200fa0078
:103f7c00404f9800514f9800624f9800030f9800e3
:103f8c0054458000140798000002eb00040f7800e1
:103f9c006c0037001e0278004322dd00e60242006e
:103fac00649c200004824200140278000402d100b8
:103fbc0061426200e14f520061003a001e0278003b
:103fcc004322dd00e6024200649c20000482420091
:103fdc00140278004522de0061426200e04f52007c
:103fec0008003a001e027800c322dd00649c200009
:103ffc0004824200944278004e4a900084cf5200d2
:10400c004f003a001e0278004322dd00e602420017
:10401c00649c200004824200140278004422de00da
:10402c0061426200e04f520008003a001e02780024
:10403c00c322dd00649c2000048242009442900064
:10404c005e4a900084cf52003d003a001e02780078
:10405c004322dd00e6024200649c20000482420000
:10406c00140278004322de0061426200e04f5200ed
:10407c0009003a001e0278004322dd008482e80029
:10408c00649c200004824200944278006e4a9000a6
:10409c0084cf52002a003a001e029000844a9000fd
:1040ac008582fb00144a90000482fb004822dd004c
:1040bc0004827200240798001e029000a44a90000b
:1040cc008582fb00344a90000482fb004822dd000c
:1040dc0004827200340798004e4a9000044f9800f6
:1040ec005e4a9000144f98006e4a9000244f98003e
:1040fc0064034700840020000500200006017800be
:10410c009107200000c0eb00461607000002780063
:10411c00e00f52000a003a001e0278004322dd0034
:10412c00e4024200649c200004824200944290000d
:10413c000e0a9000054a7800140020000500370094
:10414c001e0fe8001e027800e00f520091ff3400b1
:10415c000002eb00040078000080fa00000006006a
:10416c000c00fa0054458000140798000002eb0084
:10417c00040f7800c8c8a900c8e8a900cf00370010
:10418c001e0278004322dd00e6024200649c2000ff
:10419c0004824200140278000402d10061426200e1
:1041ac00e04f52001e0032001e027800c322dd00d8
:1041bc00649c200004824200944278001e0290000d
:1041cc004442900084cf520098003a001e027800be
:1041dc00c322dd00649c20000482420094429000c3
:1041ec001e0290005442900084cf52008f003a007f
:1041fc001e0278004322dd008482e800649c2000cb
:10420c0004824200944278001e02900064429000a6
:10421c0084cf520085003a00c8c8a800830037003c
:10422c001e027800c322dd00649c20000482420040
:10423c00940278001e029000044b90000683fb0051
:10424c00144a90000482fb004822dd000402730033
:10425c00848f520038003a001e0278004322dd00a1
:10426c008482e800649c200004824200940278005e
:10427c001e029000244b90000683fb00344a9000f1
:10428c000482fb004822dd0004027300848f52007c
:10429c0029003a001e0278004322dd00e6024200ab
:1042ac00649c200004824200140278004722de0045
:1042bc0061426200e14f52001e003a00c8e8a800bb
:1042cc001e0278004322dd00e4024200649c2000c0
:1042dc00048242001442900004437800e58b2000d5
:1042ec00864a78001e0278004322dd00e602420076
:1042fc00649c200004824200140278004222de00fa
:10430c0061426200e04f52000b0032001e02780046
:10431c004322dd00e4024200649c2000048242003f
:10432c001442780004437800858b2000864a78007c
:10433c0001003700c8c8a8001e027800c322dd00a7
:10434c00649c20000482420014027800e10f4200b9
:10435c0036003a001e0278004322dd008482e80019
:10436c00649c20000482420014027800e10f420099
:10437c002e003a001e029000844a90008582fb00b9
:10438c00144a90000482fb004822dd000482720073
:10439c00240798001e029000a44a90008582fb001e
:1043ac00344a90000482fb004822dd000482720033
:1043bc00340798001e027800c322dd00649c2000a4
:1043cc000482420014427800044f98001e027800c8
:1043dc00c322dd00649c2000048242001442900041
:1043ec00144f98001e0278004322dd008482e800fe
:1043fc00649c20000482420014427800244f9800f0
:10440c0064034700840020000500200006017800aa
:10441c009107200000c0eb00821507000002780015
:10442c00e00f520001003a00c8c8a80045468000c1
:10443c000404200004826200e00f52001e003200cf
:10444c001e0278004322dd00e4024200649c20003e
:10445c00048242001442900004437800d58b200063
:10446c00864a78001e0278004322dd00e6024200f4
:10447c00649c200004824200140278004222de0078
:10448c0061426200e04f5200090032001e027800c7
:10449c004322dd00e4024200649c200004824200be
:1044ac001442780004437800858b2000864a7800fb
:1044bc0014002000050037001e0fe8001e027800d3
:1044cc00e00f52002eff32000002eb0004007800d7
:1044dc000080fa00000006000600fa004047980031
:1044ec004e429000e04f520002003a0034468000e9
:1044fc001f0037002446800014079800180037006e
:10450c001e02900024029000e00f520011003200b5
:10451c001e02900024029000a4029000050f780067
:10452c00090037001e027800a45a90004e429000f9
:10453c0084cf520002003a001e0278000c003700b3
:10454c001e027800140f78001e027800e00f520053
:10455c00f4ff3a001e0290009402780015079800b0
:10456c001e029000e00f5200e5ff3a000002eb0043
:10457c00040078000080fa00000006001600fa0023
:10458c000002eb00040f7800744580009445800015
:10459c0070026200e00f5200a3033a0094458000c1
:1045ac0061026200e00f520056023a000040eb003c
:1045bc00a203070000027800e00f52005002320004
:1045cc0034458000045a90008482fb00040f2000c4
:1045dc000482620005022000850f5200bc003200ec
:1045ec0005032000850f520079013200f00f5200b4
:1045fc0037023a0034458000045a90000482fb00d4
:10460c006f026200cfa2de00f6002000070020003f
:10461c00860f5200878f5a00a9003e0004600100eb
:10462c000f0037001b0037002d003700a4003700a7
:10463c00a3003700a2003700a1003700a00037000c
:10464c009f0037009e0037009d0037009c0037000c
:10465c009b0037009a003700990037005d00370047
:10466c00354580001502900004b0a100940298001a
:10467c00d0c0b3006308070034458000245a900072
:10468c00d1c0b300044078002f080700b208a8007e
:10469c00680337003645800034458000940a90004a
:1046ac00040a900054039800650398003545800077
:1046bc001502900004b0a0009402980090c0b300c2
:1046cc005008070034458000245a900091c0b30074
:1046dc00044078001c080700b208a80055033700f6
:1046ec00344580008042eb00055a98003545800027
:1046fc00150290000490a00094029800744680006b
:10470c00e30f52002f003c00744680000402e800c6
:10471c007446880054468000e20f520004003c00ae
:10472c00544680000402e80054468800020037001a
:10473c000002eb0054468800544680006c22b900fd
:10474c0084027800048d2000048242001407980033
:10475c001e02900025072000050a780034458000d1
:10476c00940a9000040a90001e0390001403980011
:10477c002503980034458000b40a90001e02900076
:10478c00350298001e0290008042eb00154a9800fa
:10479c0034458000a45a90001e029000054a9800ef
:1047ac0034458000b45a90001e029000254a9800af
:1047bc0034458000945a90001e029000354a9800af
:1047cc00030037003445800085c0b300355a98008b
:1047dc003e003700344580008042eb00055a9800bb
:1047ec0035458000150290000490a00094029800ba
:1047fc0074468000e30f52002d003c00744680008c
:10480c000402e8007446880054468000e20f52000f
:10481c0004003c00544680000402e8005446880022
:10482c00020037000002eb0054468800544680001a
:10483c006c22b90084027800048d200004824200ae
:10484c00240798002e029000f5ff2700050a780037
:10485c002e0390006022b8001403980025039800e2
:10486c002e0290008002eb00350298003445800047
:10487c00c45a90002e029000154a980034458000ce
:10488c00a45a90002e029000054a980034458000ee
:10489c00b45a90002e029000254a980034458000ae
:1048ac00945a90002e029000354a9800030037006d
:1048bc003445800085c0b300355a9800030037009a
:1048cc0014002000040f7800000000008201370063
:1048dc0034458000045a90000482fb006f02620091
:1048ec00cfa2de00f600200007002000860f520049
:1048fc00878f5a00b2003e00046001000f003700a1
:10490c001b0037002300370035003700ac003700a0
:10491c00ab003700aa003700a9003700a800370009
:10492c00a7003700a6003700a5003700a400370009
:10493c00a3003700a2003700660037003545800021
:10494c001502900004b0a10094029800d0c0b300ee
:10495c00ac07070034458000245a9000d1c0b30046
:10496c000440780078070700b208a800b1023700ad
:10497c0090c0b300a307070034458000245a900070
:10498c0091c0b300044078006f070700b208a8007c
:10499c00a80237003645800034458000940a900008
:1049ac00040a900054039800650398003545800074
:1049bc001502900004b0a0009402980010c0b3003f
:1049cc009007070034458000245a900011c0b300b2
:1049dc00044078005c070700b208a8009502370075
:1049ec00344580008042eb00055a98003545800024
:1049fc00150290000490a000940298007446800068
:104a0c00e30f52002f003c00744680000402e800c3
:104a1c007446880054468000e20f520004003c00ab
:104a2c00544680000402e800544688000200370017
:104a3c000002eb0054468800544680006c22b900fa
:104a4c0084027800048d2000048242003407980010
:104a5c003e02900025072000050a780034458000ae
:104a6c00940a9000040a90003e03900014039800ee
:104a7c002503980034458000b40a90003e02900053
:104a8c00350298003e0290008042eb00154a9800d7
:104a9c0034458000a45a90003e029000054a9800cc
:104aac0034458000b45a90003e029000254a98008c
:104abc0034458000945a90003e029000354a98008c
:104acc00030037003445800085c0b300355a980088
:104adc003e003700344580008042eb00055a9800b8
:104aec0035458000150290000490a00094029800b7
:104afc0074468000e30f52002d003c007446800089
:104b0c000402e8007446880054468000e20f52000c
:104b1c0004003c00544680000402e800544688001f
:104b2c00020037000002eb00544688005446800017
:104b3c006c22b90084027800048d200004824200ab
:104b4c00440798004e029000f5ff2700050a7800f4
:104b5c004e0390006022b8001403980025039800bf
:104b6c004e0290008002eb00350298003445800024
:104b7c00c45a90004e029000154a980034458000ab
:104b8c00a45a90004e029000054a980034458000cb
:104b9c00b45a90004e029000254a9800344580008b
:104bac00945a90004e029000354a9800030037004a
:104bbc003445800085c0b300355a98000300370097
:104bcc0014002000040f780000000000c200370021
:104bdc0034458000045a90000482fb006f0262008e
:104bec00cfa2de00f600200007002000860f520046
:104bfc00878f5a00b2003e00046001000f0037009e
:104c0c001b0037002300370035003700ac0037009d
:104c1c00ab003700aa003700a9003700a800370006
:104c2c00a7003700a6003700a5003700a400370006
:104c3c00a3003700a200370066003700354580001e
:104c4c001502900004b0a10094029800d0c0b300eb
:104c5c00ec06070034458000245a9000d1c0b30004
:104c6c0004407800b8060700b208a800f10137002c
:104c7c0010c0b300e306070034458000245a9000ae
:104c8c0011c0b30004407800af060700b208a800ba
:104c9c00e80137003645800034458000940a9000c6
:104cac00040a900054039800650398003545800071
:104cbc001502900004b0a0009402980090c0b300bc
:104ccc00d006070034458000245a900091c0b300f0
:104cdc00044078009c060700b208a800d5013700f4
:104cec00344580008042eb00055a98003545800021
:104cfc00150290000490a000940298007446800065
:104d0c00e30f52002f003c00744680000402e800c0
:104d1c007446880054468000e20f520004003c00a8
:104d2c00544680000402e800544688000200370014
:104d3c000002eb0054468800544680006c22b900f7
:104d4c0084027800048d20000482420054079800ed
:104d5c005e02900025072000050a7800344580008b
:104d6c00940a9000040a90005e03900014039800cb
:104d7c002503980034458000b40a90005e02900030
:104d8c00350298005e0290008042eb00154a9800b4
:104d9c0034458000a45a90005e029000054a9800a9
:104dac0034458000b45a90005e029000254a980069
:104dbc0034458000945a90005e029000354a980069
:104dcc00030037003445800085c0b300355a980085
:104ddc003e003700344580008042eb00055a9800b5
:104dec0035458000150290000490a00094029800b4
:104dfc0074468000e30f52002d003c007446800086
:104e0c000402e8007446880054468000e20f520009
:104e1c0004003c00544680000402e800544688001c
:104e2c00020037000002eb00544688005446800014
:104e3c006c22b90084027800048d200004824200a8
:104e4c00640798006e029000f5ff2700050a7800b1
:104e5c006e0390006022b80014039800250398009c
:104e6c006e0290008002eb00350298003445800001
:104e7c00c45a90006e029000154a98003445800088
:104e8c00a45a90006e029000054a980034458000a8
:104e9c00b45a90006e029000254a98003445800068
:104eac00945a90006e029000354a98000300370027
:104ebc003445800085c0b300355a98000300370094
:104ecc0014002000040f78000000000002003700de
:104edc0014002000040f78001e027800e00f52002e
:104eec0007003200344580008042eb00055a9800e0
:104efc0035458000150290000490a00094029800a3
:104f0c00b208a8009445800068026200e00f5200cd
:104f1c0047013a0020c0b3004801070000027800a6
:104f2c00e00f52003501320034458000045a9000e5
:104f3c008482fb00040f200004826200050820001c
:104f4c00850f52000400320005092000850f520025
:104f5c008f0032001c01370034458000045a900049
:104f6c000482fb006f026200e10f52000c00320061
:104f7c00ef0f520047003200e00f520080003a0061
:104f8c0090c0b3001f06070034458000245a9000df
:104f9c0091c0b30004407800eb05070025013700f1
:104fac00344580008042eb00055a9800354580005e
:104fbc00150290000490a0009402980074468000a2
:104fcc00e30f52002f003c00744680000402e800fe
:104fdc007446880054468000e20f520004003c00e6
:104fec00544680000402e800544688000200370052
:104ffc000002eb0054468800544680006c22b90035
:10500c0084027800048d200004824200740798000a
:10501c007e02900025072000050a780034458000a8
:10502c00940a9000040a90007e03900014039800e8
:10503c002503980034458000b40a90007e0290004d
:10504c00350298007e0290008042eb00154a9800d1
:10505c0034458000a45a90007e029000054a9800c6
:10506c0034458000b45a90007e029000254a980086
:10507c0034458000945a90007e029000354a980086
:10508c00030037003445800085c0b300355a9800c2
:10509c003e003700344580008042eb00055a9800f2
:1050ac0035458000150290000490a00094029800f1
:1050bc0074468000e30f52002d003c0074468000c3
:1050cc000402e8007446880054468000e20f520047
:1050dc0004003c00544680000402e800544688005a
:1050ec00020037000002eb00544688005446800052
:1050fc006c22b90084027800048d200004824200e6
:10510c00040f98000e0a9000f5ff2700050a78009e
:10511c000e0b90006022b800140398002503980031
:10512c000e0a90008002eb00350298003445800096
:10513c00c45a90000e0a9000154a9800344580001d
:10514c00a45a90000e0a9000054a9800344580003d
:10515c00b45a90000e0a9000254a980034458000fd
:10516c00945a90000e0a9000354a980003003700bc
:10517c003445800085c0b300355a980003003700d1
:10518c0014002000040f780000000000910037008c
:10519c0034458000045a90000482fb006f026200c8
:1051ac00e10f52000c003200ef0f520047003200aa
:1051bc00e00f520080003a0010c0b30091050700c8
:1051cc0034458000245a900011c0b300044078008c
:1051dc005d05070097003700344580008042eb00e6
:1051ec00055a980035458000150290000490a000e7
:1051fc009402980074468000e30f52002f003c008c
:10520c00744680000402e80074468800544680000e
:10521c00e20f520004003c00544680000402e800f7
:10522c0054468800020037000002eb005446880008
:10523c00544680006c22b90084027800048d200052
:10524c0004824200140f98001e0a900025072000cb
:10525c00050a780034458000940a9000040a9000f6
:10526c001e0b900014039800250398003445800011
:10527c00b40a90001e0a9000350298001e0a900095
:10528c008042eb00154a980034458000a45a9000e7
:10529c001e0a9000054a980034458000b45a9000cc
:1052ac001e0a9000254a980034458000945a9000bc
:1052bc001e0a9000354a98000300370034458000e0
:1052cc0085c0b300355a98003e0037003445800045
:1052dc008042eb00055a980035458000150290007d
:1052ec000490a0009402980074468000e30f5200d2
:1052fc002d003c00744680000402e80074468800cf
:10530c0054468000e20f520004003c0054468000da
:10531c000402e80054468800020037000002eb004b
:10532c0054468800544680006c22b90084027800f0
:10533c00048d200004824200240f98002e0a900055
:10534c00f5ff2700050a78002e0b90006022b800ac
:10535c0014039800250398002e0a90008002eb009d
:10536c003502980034458000c45a90002e0a9000f3
:10537c00154a980034458000a45a90002e0a9000db
:10538c00054a980034458000b45a90002e0a9000cb
:10539c00254a980034458000945a90002e0a9000bb
:1053ac00354a9800030037003445800085c0b300af
:1053bc00355a98000300370014002000040f7800c1
:1053cc00000000000300370014002000040f7800d8
:1053dc00000000001e027800e00f520007003200af
:1053ec00344580008042eb00055a9800354580001a
:1053fc00150290000490a00094029800548b200099
:10540c0014427800e04f5200050032000042eb00dd
:10541c0004437800458b2000864a7800b9fe37009b
:10542c00b268a8000300370000000000010037003c
:10543c00000000000080fa00000006000600fa00e0
:10544c004047980034468000540a90004822de0001
:10545c00634262008482fb004e4290000482fb0097
:10546c00848f52000a003a00344680009402900067
:10547c000420200004826200e00f520004003a0075
:10548c00344680003445880014002000700037003a
:10549c000042eb0004437800558b2000864a7800cc
:1054ac000002eb00040f78002446800014079800db
:1054bc001e029000e00f5200610032001e029000ac
:1054cc0024029000e00f52005d0032001e0290009a
:1054dc0024029000a4029000050f780058003700b9
:1054ec001e027800e00f5200440032001e027800c9
:1054fc00540a90004822de00634262008482fb0062
:10550c004e4290000482fb00848f520039003a0016
:10551c004e4290000482fb00e00f52000300320068
:10552c00e20f52000b003200320037001e027800ee
:10553c00940290000420200004826200e00f5200cc
:10554c0025003a001e027800344588001400200023
:10555c003f0037001e0278009402900004202000c7
:10556c0004826200e00f52001d003a001e02780017
:10557c00940290000400210004826200e00f5200ab
:10558c0019003a00548b2000144278000442e800c1
:10559c0084427800568b2000054b7800558b2000f8
:1055ac0095427800448b20001442780084cf52003e
:1055bc000f003600548b200014427800844278008f
:1055cc00468b2000054b78001e027800344588007d
:1055dc00140020001e0037000000000005003700fa
:1055ec00000000000300370000000000010037003d
:1055fc00000000001e027800140f78001e027800d4
:10560c00e00f52000e003a001e02900014037800c6
:10561c00160798001e029000e00f5200080032009e
:10562c001e02900024029000e00f52000400320091
:10563c001e02900024029000a4029000050f780036
:10564c001e029000e00f5200a5ff3a000002eb0092
:10565c00040078000080fa00000006000600fa0042
:10566c003400370024468000140f780026003700e1
:10567c0024468000140290009402780015079800cc
:10568c00120037002446800014029000240290007f
:10569c00940278002507980024468000140290009c
:1056ac00240290000400780059ee07002446800084
:1056bc00140290008002eb00250298002446800022
:1056cc0014029000ae02900025029800244680003f
:1056dc001402900024029000e00f5200e9ff3a00ff
:1056ec0024468000140290000400780048ee070065
:1056fc00244680008002eb001502980024468000ae
:10570c009e0290001502980024468000140290001e
:10571c00e00f5200d6ff3a002446800004007800c7
:10572c003bee07000002eb00244688001e027800c6
:10573c002446880024468000e00f5200c9ff3a003e
:10574c0034468000344588000080fa0000000600d2
:10575c000200fa0011003700144680001402900079
:10576c00040f7800144680001402780004007800be
:10577c0027ee0700144680008002eb00050a780033
:10578c00144680000400780021ee07000002eb00b4
:10579c00144688001e0278001446880014468000c7
:1057ac00e00f5200ecff3a0054458000e00f52002d
:1057bc0005003200544580000400780014ee070008
:1057cc000002eb005445880064458000e00f520055
:1057dc000500320064458000040078000cee0700e0
:1057ec000002eb00644588009cff07000080fa0073
:1057fc00000006000a00fa00000f7800110798005c
:10580c002207980033079800440798009e027800fe
:10581c00150290000450a100940298009e0278009a
:10582c00150290000460a100940298009e0278007a
:10583c00150290000470a100940298009e0278005a
:10584c00150290000480a100940298001e027800ba
:10585c001403900005fe2f008502630015029800ca
:10586c009e0278001502900004c0a10094029800da
:10587c001e027800be029000350a98001e037800c4
:10588c006022b800040b9800150b98004e02900093
:10589c00050020001e03780054039800650398004f
:1058ac001e0278008002eb00750a98001e02780038
:1058bc009e029000250a98001e027800ae0290000d
:1058cc00750298001e02780005c2b300055a9800b4
:1058dc009e027800150290000490a100940298009a
:1058ec000080fa00000006000a00fa00000f7800a1
:1058fc001107980022079800330798004407980076
:10590c009e027800150290000450a10094029800a9
:10591c009e027800150290000460a1009402980089
:10592c009e027800150290000470a1009402980069
:10593c009e027800150290000480a1009402980049
:10594c001e0278001403900005fe2f0085026300f0
:10595c00150298009e0278001502900004c0a10068
:10596c00940298001e027800be029000350a98003e
:10597c001e0378006022b800040b9800150b9800e9
:10598c004e029000050020001e037800540398007e
:10599c00650398001e0278008002eb00750a9800df
:1059ac001e0278009e029000250a98001e027800c4
:1059bc00ae029000750298004e029000e00f52006b
:1059cc0004003a001e02780005c1b300055a980085
:1059dc00030037001e02780005c3b300055a980077
:1059ec009e027800150290000490a1009402980089
:1059fc000080fa00000006000600fa00000f780094
:105a0c0011079800220798009e027800150290005a
:105a1c000470a100940298009e0278001502900078
:105a2c000480a100940298001e02780014039000d8
:105a3c0005fe2f0085026300150298009e02780077
:105a4c001502900004c0a100940298001e02780078
:105a5c009e029000350a98001e0378006022b80060
:105a6c00040b9800150b98002e02900005002000e6
:105a7c001e03780054039800650398001e027800fa
:105a8c008002eb00750a98001e027800d40a900080
:105a9c00043020008482620004302000848f520085
:105aac0004003a001e02780005c4b300055a9800a1
